:100000000C945B010C940E190C94E7180C94C01816
:100010000C9499180C9483010C9483010C9472181D
:100020000C9483010C9483010C949D1B0C94681C0C
:100030000C9483010C9483010C9483010C94830130
:100040000C9483010C9483010C9483010C94830120
:100050000C9483010C9483010C9483010C94281854
:100060000C9483010C9432160C940C160C9483019E
:100070000C9483010C9483010C9483010C948301F0
:100080000C9483010C9483010C9483010C948301E0
:100090000C9483010C9483010C9483010C948301D0
:1000A0000C9483010C9483010C9483017C167F16BD
:1000B0006E1672167816A016A016A016831687164E
:1000C0008B1691169516A0169B16000000002300B3
:1000D000260029002C002F00040404040403040556
:1000E00002020202040302020202060606060606D5
:1000F00004040202020404040802011040804010BB
:10010000204080408008020401804020100201103D
:100110008010204040200000000200090F00000372
:100120000401000C000000000000000000000000BE
:10013000000000000005010906A10185020507195C
:10014000E029E715002501750195088102950175E3
:10015000088103950675081500256505071900290E
:10016000658100C05E01011F01030301008A0201D5
:100170000A010202010064001E47040B0906007C0C
:100180000101060103030100F401060E0102020150
:1001900000C201170101020201019600023E0106A0
:1001A00006010000000000240027002A002D003076
:1001B0000000000000250028002B002E0031000860
:1001C0000B0002020201000904000001020200000B
:1001D0000524001001052401010104240206052460
:1001E0000600010705810310004009040100020A0E
:1001F00000000007050202400000070583024000DE
:10020000000403090412010002EF020140412337F8
:100210008000010102030141726475696E6F204C18
:100220004C430041726475696E6F204D6963726F53
:100230000000000000000000002A2B280000000041
:1002400000000000000000000000000000000000AE
:10025000002C9EB4A0A1A2A434A6A7A5AE362D372B
:1002600038271E1F20212223242526B333B62EB77C
:10027000B89F8485868788898A8B8C8D8E8F909194
:1002800092939495969798999A9B9C9D2F3130A321
:10029000AD350405060708090A0B0C0D0E0F1011E9
:1002A00012131415161718191A1B1C1DAFB1B0B56F
:1002B00000001F2D0B2D11241FBECFEFDAE0DEBF93
:1002C000CDBF14E0A0E0B1E0EAE0FAE602C005909C
:1002D0000D92A432B107D9F728E0A4E2B4E001C03E
:1002E0001D92A532B207E1F711E0CAE5D1E004C0E2
:1002F0002197FE010E949933C935D107C9F70E94A1
:100300004F280C94F8340C9400002F923F924F9297
:100310005F926F927F928F929F92AF92BF92CF9295
:10032000DF92EF92FF920F931F93CF93DF93CDB79E
:10033000DEB7E9970FB6F894DEBF0FBECDBF24E05D
:1003400030E041E050E06EE875E0CE0101960E9499
:10035000571B6FE771E0CE0101960E94331A182FE8
:10036000CE0101960E940B1B112309F4A7C063E87C
:1003700071E0CE0101960E94421BCE0101960E94BF
:100380002F118C01CE0101960E940B1B012BC9F489
:1003900068E871E080E594E00E94E21563E886E594
:1003A00095E00E949C276CE686E595E00E949C27DC
:1003B00068EE73E080E090E00E9432170E94760EB3
:1003C0004EC06DE871E0CE0101960E94421BCE0145
:1003D00001960E942F118C01CE0101960E940B1BE9
:1003E000012B09F042C064E886E595E00E949C2755
:1003F00062E886E595E00E949C2764E786E595E043
:100400000E949C2768EC70E080E090E00E94321728
:100410000E94760E6CED75E080E090E00E9432174D
:100420006CEC86E595E00E949C276CE271E080E030
:1004300090E00E9432170E94760E6CE271E080E03C
:1004400090E00E94321762E971E086E595E00E9433
:10045000F61564E670E080E090E00E94321760EBF1
:1004600086E595E00E94062821C060E070E08EE8F5
:1004700095E00E94211A2CE132E0DC012C932091BE
:1004800092053091930545E050E06EE875E0CE01AD
:1004900001960E94571BBE016F5F7F4F86E595E076
:1004A0000E940F15CE0101960E940B1B6AE971E0B4
:1004B00080E594E00E94E2150C940C0E23E030E0FD
:1004C00041E050E06EE875E0CE0101960E94571BB6
:1004D0006EE971E0CE0101960E94331A182FCE0109
:1004E00001960E940B1B112309F47AC761EA71E09F
:1004F000CE0101960E94421BCE0101960E942F114F
:100500008C01CE0101960E940B1B101611060CF0F7
:10051000E1C065EA71E0CE0101960E94421BCE0166
:1005200001960E942F118C016BEA71E0CE014B966F
:100530000E94421BCE014B960E942F11AC014A5FD4
:100540005F4F98016EE875E0CE0189960E94571BB7
:10055000CE014B960E940B1BCE0101960E940B1BF5
:1005600061EB71E0CE0189960E94331A882309F469
:100570006EC067EB71E0CE014B960E94421BCE012C
:100580004B960E942F118C016EEB71E0CE01839689
:100590000E94421BCE0183960E942F11AC014A5F3C
:1005A0005F4F98016EE875E0CE0101960E94571BDF
:1005B0004AE050E060E070E089819A810E94672EF5
:1005C00060932A0470932B0480932C0490932D0441
:1005D000CE0101960E940B1BCE0183960E940B1B3D
:1005E000CE014B960E940B1B009192051091930532
:1005F00068EB71E0CE014B960E94421BCE014B96F8
:100600000E942F11AC014A5F5F4F98016EE875E0C0
:10061000CE0101960E94571B4AE050E060E070E076
:1006200089819A810E94672E609326047093270423
:100630008093280490932904CE0101960E940B1BFD
:10064000CE014B960E940B1B81E090E03AC064EC17
:1006500071E0CE0189960E94331A8823C1F100917E
:1006600092051091930566EA71E0CE014B960E94C7
:10067000421BCE014B960E942F11AC014B5F5F4F86
:1006800098016EE875E0CE0101960E94571B4AE082
:1006900050E060E070E089819A810E94672E60934B
:1006A0000201709303018093040190930501CE0130
:1006B00001960E940B1BCE014B960E940B1B82E001
:1006C00090E090932504809324040E94B320CE01EF
:1006D000899631C569EC71E0CE0101960E94421BFA
:1006E000CE0101960E942F118C01CE0101960E942D
:1006F0000B1B101611060CF0BBC1FE0131966F01E9
:100700000AE010E0E12CF12C809192059091930584
:100710000817190708F085C0B8016F5F7F4F8EE892
:1007200095E00E94211ADC016C91CE014B960E944B
:10073000101BB8018EE895E00E94211AFC0160812F
:10074000CE0189960E94101BBE01675D7F4FCE01CE
:1007500083960E94281BBE01655E7F4FCE01839663
:100760000E94991ABC01CE018F960E94281BCE01CF
:1007700083960E940B1BCE0189960E940B1BCE0113
:100780004B960E940B1B40E150E060E070E08FA5AB
:1007900098A90E94672E5601D6016C93B5E0EB161E
:1007A000F104A1F44AE050E060E070E08FA598A960
:1007B0000E94672E0E9447312DEC3CEC4CE450E443
:1007C0000E9484310E9456336E830EC0E6E0EE161E
:1007D000F10451F44AE050E060E070E08FA598A980
:1007E0000E94672E695C6F836EE073E080E594E0A1
:1007F0000E94F615FFEFCF1ADF0AD5014C9150E0A9
:1008000060E070E020E180E594E00E943215BFEFE7
:10081000EB1AFB0ACE018F960E940B1B0E5F1F4F37
:1008200073CF6EEC71E080E594E00E94E2156CE11C
:1008300072E08EE895E00E94BB1A85E190E090930B
:1008400076058093750510922E0461E00E94D11602
:100850000E94211060E082E00E94D11664E070E006
:1008600080E090E00E9432170E94EC0F69E280E085
:100870000E94870F6EE281E00E94870F66E082E0AF
:100880000E94870F67E483E00E94870F65E086E09F
:100890000E94870F64E087E00E94870F60E388E092
:1008A0000E94870F61E983ED0E94D10F80917E0540
:1008B000882331F060E089E00E94870F10927E0566
:1008C00080917B05882331F060E08AE00E94870FE9
:1008D00010927B0566E08BE00E94870F60E08CE061
:1008E0000E94870F61E28DE00E94870F62E68EE032
:1008F0000E94870F66E78FE00E94870F10927A05AB
:1009000068EF80E10E94870F6BE981E10E94870F09
:1009100063E382E10E94870F62E283E10E94870F16
:1009200068EF84E10E94870F60E085E10E94870FF5
:1009300067E086E10E94870F60E387E10E94870FEE
:1009400068E188E10E94870F66E189E10E94870FD4
:100950006CE68AE10E94870F63E08BE10E94870FBB
:1009600060E48CE10E94870F61E98DE10E94870FAE
:1009700067E88EE10E94870F6BE68FE10E94870F88
:100980006BEF80E20E94870F66E581E20E94870F8D
:1009900061E182E20E94870F69EE83E20E94870F85
:1009A0006AE284E20E94870F60E085E20E94870F7E
:1009B0006FE186E20E94870F61E487E20E94870F61
:1009C00060E088E20E94870F69E589E20E94870F54
:1009D0006FE78AE20E94870F6FE38BE20E94870F26
:1009E00061E88CE20E94870F65E38DE20E94870F29
:1009F0006BE08EE20E94870F0E94B50F60910101AB
:100A0000809100010E94D10F68E87BE28DED99E1B1
:100A10000E942B2064E087E00E94870F68E088E155
:100A20000E94870F63E082E10E94870F65E385E102
:100A30000E94870F64E670E080E090E00E94321729
:100A400083E30E94A10FCE0101960E94FD1F64E680
:100A500070E080E090E00E943217CE0101960E9483
:100A6000FD1F64E670E080E090E00E94321730C124
:100A700066ED71E0CE0101960E94421BCE01019607
:100A80000E942F118C01CE0101960E940B1B1016A3
:100A900011060CF0C7C16FED71E0CE0101960E9406
:100AA000421BCE0101960E942F118C01CE010196AE
:100AB0000E940B1B101611060CF00DC168EE71E0C0
:100AC000CE014B960E94421BCE014B960E942F11E5
:100AD0008C0166EA71E0CE0183960E94421BCE0132
:100AE00083960E942F11AC014B5F5F4F98016EE817
:100AF00075E0CE0101960E94571B4AE050E060E08D
:100B000070E089819A810E94672E6B017C01CE0181
:100B100001960E940B1BCE0183960E940B1BCE01F7
:100B20004B960E940B1B00919205109193056DE569
:100B300073E0CE014B960E94421BCE014B960E9461
:100B40002F11AC014B5F5F4F98016EE875E0CE014D
:100B500001960E94571B40E150E060E070E08981FF
:100B60009A810E94672E2B013C01CE0101960E94C2
:100B70000B1BCE014B960E940B1BEBE3CE16E1E064
:100B8000DE06E9F485E190E09093760580937505A3
:100B90000E9438106FEF8FEF0E94D10F60EC74E865
:100BA00086EC92E10E942B2064E087E00E94870F90
:100BB00085E30E94A10F6DE080E00E94870F62E054
:100BC00070E080E090E00E94321775E0A72EB12C13
:100BD000E3E28E2EEAE09E2EF3E72F2EF4E03F2E86
:100BE00061E084E10E94A11683EC94E10197F1F7A2
:100BF00060E084E10E94A116C4010197F1F709E0C9
:100C000010E061E084E10E94A116C4010197F1F7B0
:100C100060E084E10E94A1168FE095E00197F1F772
:100C20000150110971F70FE010E001501109D301D3
:100C3000C201002E04C0B695A795979587950A9492
:100C4000D2F761E080FF0CC084E10E94A116C401CC
:100C50000197F1F760E084E10E94A116C1010DC087
:100C600084E10E94A1168BEB93E00197F1F760E01D
:100C700084E10E94A1168BEE9AE00197F1F701152D
:100C8000110599F6F1E0AF1AB10809F0A9CF6EEE9F
:100C900071E080E594E00E94F61562E072E080E584
:100CA00094E00E94F615B701A601662777272AE08F
:100CB00080E594E00E94321568E072E080E594E0FF
:100CC0000E94F61540E150E0C301B2010E945E0FA0
:100CD0000E948E20A1C721E130E04EE050E06EE896
:100CE00075E0CE0101960E94571B4AE050E060E09B
:100CF00070E089819A810E94672E2B013C01CE0110
:100D000001960E940B1B23E130E042E150E06EE8C7
:100D100075E0CE0101960E94571B40E150E060E073
:100D200070E089819A810E94672E6B017C018B01A2
:100D3000CE0101960E940B1B2091920530919305E4
:100D400044E150E06EE875E0CE0101960E94571B29
:100D500040E150E060E070E089819A810E94672E56
:100D60004B015C01CE0101960E940B1B2BE3421646
:100D700021E052066104710419F40E946D2009C03B
:100D800031EB431631E053066104710411F40E9403
:100D9000502068E0262E312CA801C501B4010E9424
:100DA000A11F69E070E080E090E00E94321781E0CE
:100DB000281A310889F76FE072E080E594E00E941C
:100DC000F61562E072E080E594E00E94F6152AE0F4
:100DD00030E0B301A20180E594E00E947B1564E459
:100DE00072E080E594E00E94F615A601DD0C660B2A
:100DF000770B20E180E594E00E94321569E072E013
:100E000080E594E00E94F61520E1B501A40180E59B
:100E100094E00E9432156AE172E080E594E00E945D
:100E20001D1556CF6DE172E0CE0101960E94421B66
:100E3000CE0101960E942F118C01CE0101960E94D5
:100E40000B1B101611060CF079C164E272E0CE01A2
:100E500001960E94421BCE0101960E942F118C0127
:100E600066EA71E0CE014B960E94421BCE014B9682
:100E70000E942F11AC014B5F5F4F98016EE875E047
:100E8000CE018F960E94571BCE014B960E940B1BE2
:100E9000CE0101960E940B1B6BE272E0CE0101961F
:100EA0000E94421BCE0101960E942F118C0165E227
:100EB00072E0CE014B960E94421BCE014B960E94DF
:100EC0002F11AC014A5F5F4F98016EE875E0CE01CB
:100ED00089960E94571BCE014B960E940B1BCE0198
:100EE00001960E940B1B60E372E0CE0101960E9406
:100EF000421BCE0101960E942F118C016CE272E020
:100F0000CE014B960E94421BCE014B960E942F11A0
:100F1000AC014C5F5F4F98016EE875E0CE0183969F
:100F20000E94571BCE014B960E940B1BCE010196CF
:100F30000E940B1B009192051091930561E372E0F2
:100F4000CE0101960E94421BCE0101960E942F11F4
:100F5000AC014B5F5F4F98016EE875E0CE014B9698
:100F60000E94571BCE0101960E940B1B4AE050E0E5
:100F700060E070E08FA598A90E94672E4B015C018C
:100F800040E150E060E070E089A59AA50E94672EDC
:100F90006B017C0140E150E060E070E08BA19CA11E
:100FA0000E94672E6DAB7EAB8FAB98AF40E150E0F7
:100FB00060E070E08B8D9C8D0E94672E2B013C01C0
:100FC0008B018DA99EA9AFA9B8AD0196A11DB11D38
:100FD0008DAB9EABAFABB8AF9BE3891691E09906A2
:100FE000A104B10419F40E946D2012C0A1EB8A166D
:100FF000A1E09A06A104B10419F40E94502008C08F
:101000002AE030E0B501A4018DEE94E00E947B154A
:1010100066E372E08DEE94E00E94F6152AE0B701D7
:10102000A6018DEE94E00E9432156DE372E08DEE24
:1010300094E00E94F6152AE04DA95EA96FA978AD4B
:101040008DEE94E00E94321563E472E08DEE94E040
:101050000E94F6154AE050E0B2018DEE94E00E9445
:10106000C915460157014DA85EA86FA878AC4C1869
:101070005D086E087F088DA99EA9AFA9B8AD881636
:101080009906AA06BB06D0F558E0252E312CA801FA
:10109000C501B4010E94A11F6CE070E080E090E007
:1010A0000E943217B1E02B1A310889F760E570E031
:1010B00080E090E00E943217EFEF8E1A9E0AAE0A8F
:1010C000BE0A6AE472E080E594E00E94F615A5018C
:1010D00094012C193D094E095F09A4E6B0E00E9475
:1010E0009332A30192010E947432CA01B9014AE00D
:1010F00050E080E594E00E94C915BDCF80E594E002
:101100000E94A7131816190634F40E948E2010921C
:101110002504109224040E948E20CE014B960E943A
:101120000B1BCE0183960E940B1BCE0189960E9459
:101130000B1BCE018F960E940B1B6EC569E572E0FA
:10114000CE0101960E94421BCE0101960E942F11F2
:101150008C01CE0101960E940B1B101611060CF09B
:1011600055C08091920590919305892B81F0009153
:101170008E0510918F056DE070E0C8010E94C334A8
:10118000009729F0DC01A01BB10B8D0102C00FEF0D
:101190001FEF60E672E0CE014B960E94421BCE012B
:1011A0004B960E942F11AC01495F5F4F98016EE88A
:1011B00075E0CE0101960E94571B61E772E0CE01F7
:1011C00001960E94331A882359F060E088E00E945B
:1011D000A11667E672E080E594E00E94E21524C360
:1011E0006FE772E0CE0101960E94331A882309F45A
:1011F0001BC361E088E00E94A11665E772E080E50C
:1012000094E00E94E2150E948E200EC362E872E014
:10121000CE0101960E94421BCE0101960E942F1121
:101220008C01CE0101960E940B1B101611060CF0CA
:10123000F3C468E872E0CE0101960E94421BCE0121
:1012400001960E942F118C01CE0101960E940B1B6A
:10125000101611060CF0BBC065EA71E0CE010196D4
:101260000E94421BCE0101960E942F118C016BEA55
:1012700071E0CE014B960E94421BCE014B960E941C
:101280002F11AC014A5F5F4F98016EE875E0CE0107
:1012900083960E94571BCE014B960E940B1BCE01DA
:1012A00001960E940B1B009192051091930566EA2E
:1012B00071E0CE014B960E94421BCE014B960E94DC
:1012C0002F11AC014B5F5F4F98016EE875E0CE01C6
:1012D00001960E94571B4AE050E060E070E089816F
:1012E0009A810E94672E6093060170930701809394
:1012F000080190930901CE0101960E940B1BCE01BB
:101300004B960E940B1B6BE972E0CE0183960E9404
:10131000331A882331F101E010E010930B010093A0
:101320000A01E99881E994E190930F0180930E01FD
:1013300086E30E94A10F60910601709107018091E0
:101340000801909109010E942B2084E30E94A10FC3
:101350001093800500937F050E9414116FE872E0DE
:101360002FC061EA72E0CE0183960E94331A88236F
:1013700059F182E090E090930B0180930A01E99883
:1013800081E994E190930F0180930E0186E30E941E
:10139000A10F609106017091070180910801909161
:1013A00009010E942B2084E30E94A10F81E090E0BC
:1013B00090936B0580936A050E94430F68EA72E080
:1013C00080E594E00E94E215CE018396B4CE6BEBEB
:1013D00072E0CE0101960E94421BCE010196ABCE77
:1013E00024E030E041E050E06EE875E0CE01019687
:1013F0000E94571B64EC72E0CE0101960E94331AE2
:10140000182FCE0101960E940B1B112309F4EDC386
:1014100020E130E046E050E06EE875E0CE01019654
:101420000E94571B68EC72E0CE0101960E94331AAD
:10143000182FCE0101960E940B1B112309F48CC0BA
:1014400081E090E0909333048093320468EE71E081
:10145000CE014B960E94421BCE014B960E942F114B
:101460008C0163ED72E0CE0183960E94421BCE0197
:1014700083960E942F11AC014D5F5F4F98016EE87B
:1014800075E0CE0101960E94571B89819A810E94C6
:10149000792F90933D0480933C04CE0101960E94E5
:1014A0000B1BCE0183960E940B1BCE014B960E9414
:1014B0000B1B009192051091930569EE71E0CE012E
:1014C0004B960E94421BCE014B960E942F11AC01FD
:1014D0004B5F5F4F98016EE875E0CE0101960E9468
:1014E000571B4AE050E060E070E089819A810E94D9
:1014F000672E60933E0470933F0480934004909362
:101500004104CE0101960E940B1BCE014B960E9416
:101510000B1B60E073E080E594E00E94F6154091BB
:101520003C0450913D04052E000C660B770B2AE01D
:1015300030E080E594E00E947B156DEE72E080E57E
:1015400094E00E94F61560913E0470913F048091F2
:1015500040049091410401C12CE030E046E050E0AD
:101560006EE875E0CE0101960E94571B66ED72E0B1
:10157000CE0101960E94331A182FCE0101960E94C7
:101580000B1B112309F4EEC082E090E0909333042A
:101590008093320464E272E0CE014B960E94421BBB
:1015A000CE014B960E942F118C0163ED72E0CE01AB
:1015B00083960E94421BCE0183960E942F11AC019C
:1015C0004D5F5F4F98016EE875E0CE0101960E9475
:1015D000571B89819A810E94792F90933D048093B3
:1015E0003C04CE0101960E940B1BCE0183960E9403
:1015F0000B1BCE014B960E940B1B6BE272E0CE01DF
:101600004B960E94421BCE014B960E942F118C01DB
:1016100065E272E0CE0183960E94421BCE01839662
:101620000E942F11AC014A5F5F4F98016EE875E090
:10163000CE0101960E94571B4AE050E060E070E046
:1016400089819A810E94672E6093340470933504D7
:101650008093360490933704CE0101960E940B1BB1
:10166000CE0183960E940B1BCE014B960E940B1B52
:1016700000919205109193056CE272E0CE014B96B9
:101680000E94421BCE014B960E942F11AC014C5F71
:101690005F4F98016EE875E0CE0101960E94571BDE
:1016A0004AE050E060E070E089819A810E94672EF4
:1016B000609338047093390480933A0490933B0408
:1016C000CE0101960E940B1BCE014B960E940B1B74
:1016D0008091340490913504A0913604B091370480
:1016E00080933E0490933F04A0934004B093410440
:1016F00060E073E080E594E00E94F61540913C04C0
:1017000050913D04052E000C660B770B2AE030E06B
:1017100080E594E00E947B156DED72E080E594E039
:101720000E94F615409134045091350460913604BE
:10173000709137042AE080E594E00E94321568EE4B
:1017400072E080E594E00E94F61560913804709193
:10175000390480913A0490913B044AE050E00E94A1
:101760005E0F5AC22CE030E046E050E06EE875E0D3
:10177000CE0101960E94571B61EF72E0CE010196E7
:101780000E94331A182FCE0101960E940B1B1123C1
:1017900009F451C08091920590919305892B81F0B5
:1017A00000918E0510918F056DE070E0C8010E94D8
:1017B000C334009729F0FC01E01BF10B8F0102C03C
:1017C0000FEF1FEF60E672E0CE014B960E94421BC6
:1017D000CE014B960E942F11AC01495F5F4F9801DB
:1017E0006EE875E0CE0101960E94571B61E772E03A
:1017F000CE0101960E94331A882331F061E086E021
:101800000E94A11661E00DC06FE772E0CE01019663
:101810000E94331A882341F060E086E00E94A116FE
:1018200060E089E00E94A116CE0101960E940B1B88
:10183000CE014B9680CC68EF72E0CE0101960E94FB
:10184000421BCE0101960E942F118C01CE01019600
:101850000E940B1B101611060CF0DEC168EE71E041
:10186000CE014B960E94421BCE014B960E942F1137
:101870008C0163ED72E0CE0183960E94421BCE0183
:1018800083960E942F11AC014D5F5F4F98016EE867
:1018900075E0CE0101960E94571B89819A810E94B2
:1018A000792F90933D0480933C04CE0101960E94D1
:1018B0000B1BCE0183960E940B1BCE014B960E9400
:1018C0000B1B009192051091930569EE71E0CE011A
:1018D0004B960E94421BCE014B960E942F11AC01E9
:1018E0004B5F5F4F98016EE875E0CE0101960E9454
:1018F000571B4AE050E060E070E089819A810E94C5
:10190000672E60933E0470933F048093400490934D
:101910004104CE0101960E940B1BCE014B960E9402
:101920000B1B6EEF72E080E594E00E94F61540918B
:101930003C0450913D04052E000C660B770B2AE009
:1019400030E080E594E00E947B156DEE72E080E56A
:1019500094E00E94F61560913E0470913F048091DE
:101960004004909141044AE050E00E945E0FC09014
:101970003E04D0903F04E0904004F0904104009178
:101980003C0410913D0488E0E3E3F1E0DE015B9666
:1019900001900D928A95E1F71FA618AA19AA1AAA12
:1019A00080E490E8A4E1B0E089A79AA7ABA7BCA720
:1019B00060E089E00E94A11664E270E080E090E0BF
:1019C0000E94321740E062E0CE014B960E94840EE6
:1019D00060E170E080E090E00E94321747E061E053
:1019E000CE018F960E94840E61E270E080E090E06C
:1019F0000E94321740E061E0CE0189960E94840E79
:101A000060E170E080E090E00E943217C801807FC2
:101A1000992724E0959587952A95E1F79A838983FC
:101A20000F7011271C830B83FE01359620E030E0F8
:101A30004FE0842E912CA12CB12CA901445E5F4F64
:101A4000D501C401042E04C0880F991FAA1FBB1F13
:101A50000A94D2F78C219D21AE21BF2104C0B695F6
:101A6000A795979587954A95D2F78193919324509E
:101A70003109203E8FEF380701F7CE0101960E9411
:101A80006F113C01812C912CB0E0A0E01DAA19AE91
:101A9000212C512C80E8382E44244A94F301808173
:101AA0003181F2E06F0E711C282F932F990F990B43
:101AB000740182E3E80EF11C492F592F692F792F09
:101AC000892F0E2D0E949F3359016A017B018C01E1
:101AD0002B2F3A2F4DA959AD622D752D832D942DA5
:101AE0000E94D633B22FA32F4DAB59AF262E572EBF
:101AF000382E492E95E0891A9108E9EC8E16EFEF01
:101B00009E0661F62B2F3A2F622D752D832D942D75
:101B100000E20E94BA332BA33CA34DA35EA39D0118
:101B20009DA989AD39832A839B838C8341E061E041
:101B3000CE0183960E94840E60E170E080E090E028
:101B40000E94321742E061E0CE0101960E94840EAD
:101B500060E170E080E090E00E94321761E089E08F
:101B60000E94A11665E870E080E090E00E943217C4
:101B700060E089E00E94A11665E870E080E090E0F6
:101B80000E94321761E089E00E94A11661E086E0C0
:101B90000E94A11664E670E080E090E00E94321797
:101BA00060E089E00E94A11660E086E00E94A11634
:101BB00064E670E080E090E00E94321761E089E026
:101BC0000E94A11661E086E00E94A11664E670E022
:101BD00080E090E00E94321760E089E00E94A11648
:101BE00060E086E00E94A11617C064E073E080E523
:101BF00094E00E94F61560E070E08EE895E00E94A7
:101C0000211ADC016C91062E000C770B40E150E0AC
:101C100080E594E00E94C9156CE172E08EE895E0E1
:101C20000E94BB1AE9960FB6F894DEBF0FBECDBF77
:101C3000DF91CF911F910F91FF90EF90DF90CF90A8
:101C4000BF90AF909F908F907F906F905F904F90DC
:101C50003F902F900895CF93C62FBC018DEE94E056
:101C60000E94F6156BE073E08DEE94E00E94F6158D
:101C70008C2F0E94BB12482F50E060E070E020E102
:101C80008DEE94E00E9432156AE172E08DEE94E0F0
:101C90000E941D15CF91089560E086E00E94A11674
:101CA0008BE891E00197F1F761E086E00E94A116D0
:101CB00083E592E00197F1F760E086E00C94A116CD
:101CC00060E086E00E94A11683E795E00197F1F7B6
:101CD00061E086E00E94A11683E592E00197F1F7AA
:101CE00060E086E00C94A1160E94B534E6E5F5E0CC
:101CF00016821782108611861286138614826AE570
:101D000075E0CF010C946E27CF92DF92FF920F9374
:101D10001F93CF93DF936C01C62FF42E61E086E012
:101D20000E94A1168BEB93E00197F1F760E086E04B
:101D30000E94A1160E94600E0E944C0E0E944C0E42
:101D4000CC23F1F00FE110E0F60180819181A281B6
:101D5000B381002E04C0B695A795979587950A94F0
:101D6000D2F780FF03C00E94600E02C00E944C0E9A
:101D70000150110948F724E0C20ED11CC150E0CF38
:101D8000C2E0D0E00F2D10E0C8010C2E02C09595E6
:101D900087950A94E2F780FF03C00E94600E02C09C
:101DA0000E944C0E219780F7DF91CF911F910F91E8
:101DB000FF90DF90CF900895FC018091490481113C
:101DC00003C08FEF9FEF08959FB7F89482E0809350
:101DD000E9002091F20030E01216130614F421E01D
:101DE00030E02115310559F0289A84E680934804A3
:101DF0008091F10080838091F200882319F09FBFC9
:101E0000C90108958BE68093E800F9CFE82FF0E050
:101E1000EE0FFF1FE45FFE4F718360838230D9F0C5
:101E200028F4882341F0813071F008958330D9F08F
:101E3000843009F10895809169008C7F81608093DE
:101E40006900E89A089580916900837F8460809397
:101E50006900E99A0895809169008F7C8061809380
:101E60006900EA9A0895809169008F738064809375
:101E70006900EB9A089580916A008F7C806180935D
:101E80006A00EE9A089580916A0590916B058F3FE4
:101E90002FEF920791F01092620510926305109255
:101EA0006405109265051092A7051092A60585306D
:101EB00020F46CEF75E20C94060F0895CF93DF9336
:101EC0004115510559F4E0915004F09151040190ED
:101ED000F081E02D80E594E0099507C0242FAB0147
:101EE000BC0180E594E00E943215EC016AE172E0E9
:101EF00080E594E00E941D158C0F9D1FDF91CF910E
:101F000008958EBD0DB407FEFDCF8EB508950F93D5
:101F10001F93CF93DF93082F162FC3E7D5E060E020
:101F20008A810E94A116802F0E94810F812F0E941A
:101F3000810F61E08A81DF91CF911F910F910C9405
:101F4000A1161F93CF93DF93182FC3E7D5E060E06E
:101F50008A810E94A116812F0E94810F61E08A81EF
:101F6000DF91CF911F910C94A1161F93CF93DF9314
:101F700060E0809175050E94A1168EE70E94810F96
:101F8000CBE3D1E01C2F185F89910E94810F1C13B5
:101F9000FBCF61E080917505DF91CF911F910C948B
:101FA000A116CF93DF9390917C05981304C0909174
:101FB0007D05961771F0C62FD82F682F84E00E94F8
:101FC000870F6C2F85E00E94870FD0937C05C0930C
:101FD0007D05DF91CF910895CF93DF93C3E7D5E0DF
:101FE00061E08A810E94A1168FE090E00197F1F7ED
:101FF00060E08A810E94A11683E290E00197F1F7E8
:1020000061E08A810E94A1168FE990E00197F1F7C3
:1020100060E08A810E94A1166AE070E080E090E0B2
:102020000E94321780E30E94810F6AE070E080E036
:1020300090E00E94321761E08A81DF91CF910C9489
:10204000A11661E080E10E94D11660E08EE00E945E
:10205000D11661E08FE00E94D11661E08FE00E940E
:10206000A11660E080E10E94A11680E58CBD089574
:1020700061E0809175050E94D1160E94211060E0F8
:1020800082E00E94D11664E070E080E090E00E945F
:1020900032170E94EC0F69E280E00E94870F6EE227
:1020A00081E00E94870F66E082E00E94870F67E46C
:1020B00083E00E94870F6FEF86E00E94870F60E049
:1020C00087E00E94870F60E388E00E94870F61E944
:1020D00083ED0E94D10F80917E05882331F060E06E
:1020E00089E00E94870F10927E0580917B058823EE
:1020F00031F060E08AE00E94870F10927B0566E075
:102100008BE00E94870F60E08CE00E94870F60E107
:102110008DE00E94870F60EB8EE00E94870F61E7E1
:102120008FE00E94870F82E080937A0568EF80E15C
:102130000E94870F63E981E10E94870F63E382E1D8
:102140000E94870F62E283E10E94870F68EF84E1BB
:102150000E94870F60E085E10E94870F67E086E1BB
:102160000E94870F60E287E10E94870F68E188E1A3
:102170000E94870F66E189E10E94870F6CE68AE181
:102180000E94870F60E08BE10E94870F60E48CE182
:102190000E94870F61E98DE10E94870F67E88EE159
:1021A0000E94870F6BE68FE10E94870F6BEF80E242
:1021B0000E94870F66E581E20E94870F61E182E25B
:1021C0000E94870F69EE83E20E94870F6AE284E231
:1021D0000E94870F60E085E20E94870F6FE186E230
:1021E0000E94870F61E487E20E94870F60E088E227
:1021F0000E94870F69E589E20E94870F6FE78AE2F4
:102200000E94870F6FE38BE20E94870F61E88CE2E8
:102210000E94870F65E38DE20E94870F6BE08EE2DC
:102220000E94870F0C94B50F80917F0590918005D7
:102230008F3F2FEF920791F010926605109267057D
:10224000109268051092690510924F0410924E0486
:10225000853020F463E973E20C94060F0895CF9360
:10226000DF932091920530919305232B79F0FC01A7
:10227000C0918E05D0918F0560817181CE010E9441
:10228000DE34009719F08C1B9D0B02C08FEF9FEF7F
:10229000DF91CF910895CF93DF93EBE1F1E084914B
:1022A000ECEFF0E0D491EDEDF0E0C491CC2391F0AF
:1022B00081110E946416EC2FF0E0EE0FFF1FE65331
:1022C000FF4FA591B491EC91ED2381E090E021F4D2
:1022D00080E002C080E090E0DF91CF9108950F93FD
:1022E0001F93CF93DF93BC016C5E7F4FFC01408155
:1022F0005181DA0120E030E0109729F02A273B27AE
:10230000B695A795F9CF440F551F21703327240F99
:10231000351F21933193E617F70749F7E4E0F0E022
:10232000A1E0B0E08D010E2E02C0000F111F0A9433
:10233000E2F7EC0120E030E049915991402351232C
:102340000E2E02C0559547950A94E2F724273527AB
:10235000C617D70789F73197217033270E2E02C091
:10236000220F331F0A94E2F740914C0450914D0420
:10237000240F351F30934D0420934C04309791F671
:10238000220F331FFC01358B248B10924D041092C9
:102390004C04DF91CF911F910F9108952F923F929E
:1023A0004F925F926F927F928F929F92AF92BF9265
:1023B000CF92DF92EF92FF920F931F93CF93DF9311
:1023C000CDB7DEB76B970FB6F894DEBF0FBECDBFAB
:1023D0009C01207F3327E4E035952795EA95E1F7C6
:1023E0003A8329838F7099279C838B83FE013596CE
:1023F00020E030E0AFE0CA2ED12CE12CF12C890195
:10240000045E1F4FD701C601002E04C0880F991F1C
:10241000AA1FBB1F0A94D2F784239523A623B723B0
:1024200004C0B695A795979587950A95D2F781939D
:10243000919324503109203E8FEF380701F7CE01E8
:1024400001960E946F11DC01E0E0F0E0D12CE12C5C
:10245000F12C212C312C412C20E8C22E8FEF8B8FB8
:102460008C9111963C9111971296282F932F990FCA
:10247000990B8F010E5C1F4F492F592F692F792F10
:10248000892F0E949F3359013A014B018C012D2D58
:102490003E2D4F2D522D632D742D8C2D9B8D630160
:1024A00074010E94D633522E132FB42EA52E962ED1
:1024B000872E782E692ED22EE32EF42E252E362E40
:1024C000472EC82E9B8F3597E93C8FEFF80741F6D2
:1024D00080E4E82EF12C93EEC92E93E0D92E81E012
:1024E000E81AF108252D312F4B2D5A2D692D782D05
:1024F000872D962D0E2D0E94BA33217030E040E0DA
:1025000050E060E070E080E090E0A0E00E94DF3307
:1025100041F086E00E94A116C6010197F1F761E043
:1025200008C061E086E00E94A116C6010197F1F79C
:1025300060E086E00E94A116C6010197F1F7E11460
:10254000F10469F66B960FB6F894DEBF0FBECDBFEF
:10255000DF91CF911F910F91FF90EF90DF90CF907F
:10256000BF90AF909F908F907F906F905F904F90B3
:102570003F902F9008951F93CF93DF93182FC3E7B9
:10258000D5E060E08A810E94A116812F806C0E94B4
:10259000810F80E00E94810F182F61E08A810E94E4
:1025A000A116812FDF91CF911F9108957F928F9275
:1025B0009F92AF92BF92CF92DF92EF92FF920F93D2
:1025C0001F93CF93DF93CDB7DEB7762E6A018DB61A
:1025D0009EB62DB73EB7241B350B0FB6F8943EBF01
:1025E0000FBE2DBFEDB7FEB731967F01BC018DEE5A
:1025F00094E00E94F6156BE073E08DEE94E00E948B
:10260000F615570100E010E0872D800F0C151D0511
:10261000B9F00E94BB12F50181935F01482F50E091
:1026200060E070E020E18DEE94E00E9432156EE0F3
:1026300073E08DEE94E00E94F6150F5F1F4FE4CF1C
:102640006CE172E08DEE94E00E94E215C7010FB6D6
:10265000F8949EBE0FBE8DBEDF91CF911F910F915A
:10266000FF90EF90DF90CF90BF90AF909F908F90B2
:102670007F9008952FB7F89487708093E900909128
:10268000E800892F807295FF04C09091F20080E4E9
:10269000891B2FBF0895CF92DF92EF92FF920F9385
:1026A0001F93CF93DF936C017A018B01C0E0D0E0E0
:1026B000CE15DF0589F0D8016D918D01D601ED9120
:1026C000FC910190F081E02DC6010995892B11F450
:1026D0007E0102C02196ECCFC701DF91CF911F91FF
:1026E0000F91FF90EF90DF90CF900895FC01538DF4
:1026F000448D252F30E0842F90E0821B930B5417DC
:1027000010F0CF96089501970895FC01918D828D68
:10271000981761F0828DDF01A80FB11D5D968C9135
:10272000928D9F5F9F73928F90E008958FEF9FEF40
:102730000895FC01918D828D981731F0828DE80FFC
:10274000F11D858D90E008958FEF9FEF0895FC01B6
:10275000918D228D892F90E0805C9F4F821B910983
:102760008F739927089580E594E00E94A71321E0D4
:10277000892B09F420E0822F0895FC01848DDF016C
:10278000A80FB11DA35ABF4F2C91848D90E00196E4
:102790008F739927848FA689B7892C93A089B189D3
:1027A0008C9180648C93938D848D981306C00288DD
:1027B000F389E02D80818F7D80830895EF92FF92D1
:1027C0000F931F93CF93DF93EC0181E0888F9B8D54
:1027D0008C8D981305C0E889F989808185FD24C016
:1027E000F62E0B8D10E00F5F1F4F0F731127E02E99
:1027F0008C8DE8120CC00FB607FCFACFE889F98976
:10280000808185FFF5CFCE010E94BD13F1CF8B8D66
:10281000FE01E80FF11DE35AFF4FF0820B8FEA89AA
:10282000FB898081806207C0EE89FF896083E88927
:10283000F98980818064808381E090E0DF91CF918D
:102840001F910F91FF90EF900895CF93DF93EC01CC
:10285000888D8823C9F0EA89FB89808185FD05C0C0
:10286000A889B9898C9186FD0FC00FB607FCF5CFFA
:10287000808185FFF2CFA889B9898C9185FFEDCF42
:10288000CE010E94BD13E7CFDF91CF91089580E084
:1028900090E0892B29F00E94B31381110C94000061
:1028A0000895CF93DF931F92CDB7DEB76983DC0124
:1028B000ED91FC910280F381E02D41E050E0BE01FA
:1028C0006F5F7F4F09950F90DF91CF91089583E05F
:1028D0008093E9008091F200882319F08AE38093C5
:1028E000E800089583E00E943A1390E00895FC0107
:1028F0008485958597FD0BC09FB7F89482E08093FF
:10290000E9008091F2009FBF90E0019608959FB783
:10291000F89482E08093E9008091F2009FBF90E0FC
:10292000089508950F931F93CF93DF931F92CDB710
:10293000DEB78C01FC018485958597FF0EC0CE0122
:1029400001960E94DC0E019719F4298130E002C043
:102950002FEF3FEFF80135872487F80184859585AF
:102960000F90DF91CF911F910F910895CF93DF9337
:102970001F92CDB7DEB7FC018485958597FD05C014
:102980002FEF3FEF358724870BC0CE0101960E94C1
:10299000DC0E019719F4898190E002C08FEF9FEF60
:1029A0000F90DF91CF9108954091EB055091EC0588
:1029B0002091E9053091EA0542175307B4F490914C
:1029C000E8009570E1F39091E80092FD19C08093C2
:1029D000F1008091EB059091EC0501968F7399279A
:1029E000892B19F48EEF8093E8008091EB0590918C
:1029F000EC0501969093EC058093EB0581E008953A
:102A000080E00895615030F02091F100FC012083B6
:102A10000196F8CF289A84E6809348040895DC0153
:102A2000ED91FC91DB0114964D915C9115976D91A0
:102A30007C910280F381E02D09946115710579F094
:102A4000FB0101900020E9F73197AF01461B570BBE
:102A5000DC01ED91FC910280F381E02D099480E08E
:102A600090E008954F925F926F927F92EF92FF9263
:102A70000F931F93CF93DF93CDB7DEB7A1970FB618
:102A8000F894DEBF0FBECDBF7C01FA01CB0119A2C5
:102A9000223008F42AE08E010F5D1F4F422E512C88
:102AA000612C712CBF01A30192010E945232F901E5
:102AB000CA01015011096A3014F4605D01C0695CFB
:102AC000D8016C93232B242B252B61F7B801C70168
:102AD0000E941D15A1960FB6F894DEBF0FBECDBFA4
:102AE000DF91CF911F910F91FF90EF907F906F90AA
:102AF0005F904F900895CF92DF92EF92FF920F93E5
:102B00001F93CF93DF93EC016A017B0121153105FF
:102B100079F4E881F9810190F081E02D642FDF9153
:102B2000CF911F910F91FF90EF90DF90CF9009947C
:102B30002A30310509F577FF1EC0E881F98101903F
:102B4000F081E02D6DE209958C0144275527BA01EB
:102B50004C195D096E097F092AE0CE010E943215E9
:102B6000800F911FDF91CF911F910F91FF90EF90F8
:102B7000DF90CF9008952AE0B701A601CE01DF9142
:102B8000CF911F910F91FF90EF90DF90CF900C9419
:102B900032150F931F93CF93DF93EC019A01AB0192
:102BA000770F660B770B0E947B158C016AE172E050
:102BB000CE010E941D15800F911FDF91CF911F91B3
:102BC0000F9108950F931F93CF93DF93EC010E9411
:102BD0001D158C016AE172E0CE010E941D15800F67
:102BE000911FDF91CF911F910F9108950C941D15A6
:102BF0008091E10581110DC082E08093DD0584E0C4
:102C00008093DE051092E0051092DF0581E080934D
:102C1000E1058DED95E008951F920F920FB60F928A
:102C200011242F933F934F935F936F937F938F93D1
:102C30009F93AF93BF93EF93FF9380E594E00E943F
:102C4000BD13FF91EF91BF91AF919F918F917F91B4
:102C50006F915F914F913F912F910F900FBE0F9009
:102C60001F9018951F920F920FB60F9211242F9359
:102C70008F939F93EF93FF93E0916004F091610431
:102C80008081E0916604F091670482FD12C090811A
:102C9000809169048F5F8F7320916A04821751F0CD
:102CA000E0916904F0E0E05BFB4F958F809369044D
:102CB00001C08081FF91EF919F918F912F910F9093
:102CC0000FBE0F901F90189590E0FC013197EF30E8
:102CD000F105B0F5EA5AFF4F0C94993380918000CA
:102CE0008F7703C0809180008F7D8093800008954E
:102CF00080918000877FF9CF84B58F7702C084B53B
:102D00008F7D84BD0895809190008F7707C080915A
:102D100090008F7D03C080919000877F809390000A
:102D200008958091C0008F7703C08091C0008F7D8F
:102D30008093C00008958091C200877F8093C20075
:102D400008951F93CF93DF93282F30E0F901EA5EB7
:102D5000FE4F8491F901E950FF4FD491F901E852F7
:102D6000FF4FC491CC23C9F0162F81110E94641625
:102D7000EC2FF0E0EE0FFF1FEF54FE4FA591B49142
:102D80008FB7F894111105C09C91ED2FE095E923C0
:102D900002C0EC91ED2BEC938FBFDF91CF911F918F
:102DA0000895CF93DF9390E0FC01E950FF4F249109
:102DB000FC01E852FF4F8491882361F190E0880F75
:102DC000991FFC01ED55FE4FC591D491FC01EF54C4
:102DD000FE4FA591B491611109C09FB7F894888105
:102DE000209582238883EC912E230BC0623061F4FE
:102DF0009FB7F8943881822F809583238883EC9144
:102E00002E2B2C939FBF06C08FB7F894E8812E2BF2
:102E100028838FBFDF91CF9108953FB7F8948091B9
:102E2000D9059091DA05A091DB05B091DC0526B5B6
:102E3000A89B05C02F3F19F00196A11DB11D3FBFF2
:102E4000BA2FA92F982F8827820F911DA11DB11D80
:102E5000BC01CD0142E0660F771F881F991F4A957C
:102E6000D1F708958F929F92AF92BF92CF92DF9247
:102E7000EF92FF926B017C010E940D174B015C01E8
:102E8000C114D104E104F104F1F00E940D17DC013A
:102E9000CB0188199909AA09BB09883E9340A1056D
:102EA000B10570F321E0C21AD108E108F10888EEFB
:102EB000880E83E0981EA11CB11CC114D104E1044A
:102EC000F10419F7DDCFFF90EF90DF90CF90BF9026
:102ED000AF909F908F9008957F928F929F92AF9224
:102EE000BF92CF92DF92EF92FF920F931F93CF93F7
:102EF000DF93C82E8B017A0180914904811103C0B0
:102F00008FEF9FEF75C08091300480FF05C08091E6
:102F1000E00082608093E000CE2DDF2DD12C8AEF7F
:102F2000882E8C2D8770B82E8C2D8072A82E8C2D1B
:102F30008074982E9AE3792E209709F452C08C2D34
:102F40000E943A13282F81110AC08A948820C1F266
:102F500061E070E080E090E00E943217EDCF90E0F9
:102F6000C817D9070CF42C2F3FB7F894B092E9009A
:102F70008091E80085FF33C0822F90E0C81BD90BF9
:102F8000AA2029F02150A8F01092F100FBCFF801FF
:102F9000C7FE07C0215058F044914093F10031968C
:102FA000F9CF215020F041914093F100FACF080F62
:102FB000191FDD2019F07092E8000AC08091E80026
:102FC00085FD08C07092E800DD24D394209739F085
:102FD000D12C05C0209719F491107092E8003FBFE2
:102FE000ABCFD110ACCF5D9A84E68093ED05C701DD
:102FF000DF91CF911F910F91FF90EF90DF90CF90D5
:10300000BF90AF909F908F907F900895CF93DF9364
:10301000EC0180912C01882331F083E00E946C1731
:103020001816190634F081E090E09B838A8380E0D3
:1030300090E0DF91CF9108952FB7F8946091D50576
:103040007091D6058091D7059091D8052FBF08952E
:103050001F920F920FB60F9211242F933F938F93CD
:103060009F93AF93BF938091D5059091D605A09182
:10307000D705B091D8053091D40523E0230F2D3723
:1030800020F40196A11DB11D05C026E8230F02966C
:10309000A11DB11D2093D4058093D5059093D6052D
:1030A000A093D705B093D8058091D9059091DA0502
:1030B000A091DB05B091DC050196A11DB11D8093A7
:1030C000D9059093DA05A093DB05B093DC05BF9199
:1030D000AF919F918F913F912F910F900FBE0F90C5
:1030E0001F9018951F920F920FB60F9211242F93D5
:1030F0003F934F935F936F937F938F939F93AF9380
:10310000BF93EF93FF93E0911401F091150109959E
:10311000FF91EF91BF91AF919F918F917F916F91AF
:103120005F914F913F912F910F900FBE0F901F9085
:1031300018951F920F920FB60F9211242F933F9361
:103140004F935F936F937F938F939F93AF93BF93AF
:10315000EF93FF93E0911201F09113010995FF9114
:10316000EF91BF91AF919F918F917F916F915F91FF
:103170004F913F912F910F900FBE0F901F90189578
:103180001F920F920FB60F9211242F933F934F93DC
:103190005F936F937F938F939F93AF93BF93EF93BF
:1031A000FF93E0911001F09111010995FF91EF91CA
:1031B000BF91AF919F918F917F916F915F914F914F
:1031C0003F912F910F900FBE0F901F9018951F9257
:1031D0000F920FB60F9211242F933F934F935F934B
:1031E0006F937F938F939F93AF93BF93EF93FF93CF
:1031F000E0910E01F0910F010995FF91EF91BF91C0
:10320000AF919F918F917F916F915F914F913F917E
:103210002F910F900FBE0F901F9018951F920F9235
:103220000FB60F9211242F933F934F935F936F9399
:103230007F938F939F93AF93BF93EF93FF93E0910F
:103240000C01F0910D010995FF91EF91BF91AF91A4
:103250009F918F917F916F915F914F913F912F91AE
:103260000F900FBE0F901F901895CF93DF93EC0136
:1032700081E08C838D839E01265F3F4F3F832E83A9
:103280001986188627E731E0398328831C861B8638
:103290001E861D868F87888B81EC8A870E94F81591
:1032A000FC0121818C8190E0820F911D089774F5BB
:1032B000A281B381109719F4D383C2830CC01896EE
:1032C0008D919C911997009711F0DC01F8CF199618
:1032D000DC93CE93189780818A8381818B83908140
:1032E0008D81890F808380E09C81891778F4AE817D
:1032F000BF81A80FB11D9C91A181B0E0A65EBE4F19
:103300009C9391819F5F91838F5FEECFDF91CF91EF
:1033100008950895CF93DF93EC01888199810097F8
:1033200011F00E949C30198218821D821C821B821F
:103330001A82DF91CF9108950F931F93CF93DF935C
:10334000EC0188819981009729F02A813B81261719
:10335000370788F48B016F5F7F4F0E94EB33009734
:1033600061F0998388831B830A832C813D81232B01
:1033700011F4FC01108281E001C080E0DF91CF9167
:103380001F910F910895EF92FF920F931F93CF9388
:10339000DF93EC017B018A01BA010E949C19811123
:1033A00004C0CE010E948A1907C01D830C83B70197
:1033B000888199810E94D734CE01DF91CF911F91EE
:1033C0000F91FF90EF900895CF92DF92EF92FF92CE
:1033D0000F931F93CF93DF931F92CDB7DEB7182FB4
:1033E000062FE42E862F880F8E5F99830E94D414B7
:1033F00083E00E94D414F12EC12E9981D92E8C2DF8
:103400008F19801798F4F601E7FE02C0849101C07D
:1034100080810E94D414182F80E00E94D41481234C
:10342000FFEFCF1ADF0A8111EACF01C081E00F90D0
:10343000DF91CF911F910F91FF90EF90DF90CF9090
:103440000895FC01248135816217730720F480817F
:103450009181009729F41092EE058EEE95E0089583
:10346000860F971F0895FC0124813581232B31F4A9
:1034700021E061157105A1F0FB0108C0FC0180810C
:1034800091816115710531F421E0FC01808188236F
:1034900039F005C00E94CE3421E0892B09F020E0EC
:1034A000822F0895EF92FF920F931F93CF93DF9394
:1034B000FC01248135816115710511F480E019C08A
:1034C00041155105A9F07B01EC018A01020F131F80
:1034D000B8010E949C19882389F3288139818C8145
:1034E0009D81B701820F931F0E94D7341D830C83E7
:1034F00081E0DF91CF911F910F91FF90EF900895A0
:10350000CF93DF93EC016115710561F0FB01019030
:103510000020E9F73197AF01461B570B0E94521A62
:10352000811103C0CE010E948A19CE01DF91CF9193
:103530000895CF93DF93EC01FB01448155816081B5
:1035400071810E94521A811103C0CE010E948A1912
:10355000CE01DF91CF9108956115710551F0FB0106
:1035600001900020E9F73197AF01461B570B0C94EF
:10357000521A80E00895CF93DF93EC016115710535
:1035800059F0FB0101900020E9F73197AF01461B8C
:10359000570B0E94C31902C00E948A19CE01DF9105
:1035A000CF9108950F931F93CF93DF938C01EB017D
:1035B000FC01808191810097B1F06881798161156A
:1035C000710579F0428153812C813D814217530767
:1035D00040F00E94D7348C819D81F80195838483CB
:1035E00013C00E949C3088819981F8019183808367
:1035F0008A819B81938382838C819D81958384833F
:10360000198218821B821A821D821C82DF91CF913F
:103610001F910F910895FC01808191810C949C3041
:10362000CF93DF9300D0CDB7DEB7FC0111821082BB
:10363000138212821582148269831A82BE016F5F1F
:103640007F4F0E94BB1A0F900F90DF91CF9108958A
:10365000FB01DC0111961C921E9213961C921E9285
:10366000129715961C921E9214978617970749F089
:10367000608171816115710521F0448155810C943F
:10368000C3190895FC0111821082138212821582DF
:1036900014826115710551F0FB0101900020E9F7DA
:1036A0003197AF01461B570B0C94C3190895BF9275
:1036B000CF92DF92EF92FF920F931F93CF93DF93FE
:1036C0007C016B018A01E9012417350720F4812F61
:1036D0008901C42FD82F6CE172E0C7010E94421B00
:1036E000D60114968D919C91159708171907D0F45F
:1036F0008C179D0708F4EC01D601ED91FC91119710
:10370000EC0FFD1FB08010824D915C91BA01600FEB
:10371000711FC7010E94BB1AD601ED91FC91EC0FFD
:10372000FD1FB082C701DF91CF911F910F91FF90D4
:10373000EF90DF90CF90BF9008951F920F920FB639
:103740000F9211248F939F938091E1009091E1005B
:10375000937F9093E10083FF0FC01092E90091E006
:103760009093EB001092EC0092E39093ED00109296
:10377000490498E09093F00082FF20C093E090937A
:10378000E9009091F200992319F09AE39093E800F0
:103790009091ED05992339F09091ED05915090931A
:1037A000ED05992389F190914804992339F090917E
:1037B0004804915090934804992341F184FF10C02C
:1037C0008091E2008E7E81608093E2008091E10032
:1037D0008F7E8093E100809130048E7E806111C0E5
:1037E00080FF16C08091E2008E7E80618093E200AF
:1037F0008091E1008E7E8093E100809130048E7E86
:1038000081608093300404C05D98CDCF2898D6CFD6
:103810009F918F910F900FBE0F901F901895DF9280
:10382000EF92FF920F931F93CF93DF93D82E8A01CD
:103830007B01E40EF51EEB01CE15DF0571F0D7FE1E
:1038400003C0FE01849101C088810E94D414219696
:103850008111F2CF8FEF9FEF01C0C801DF91CF91AF
:103860001F910F91FF90EF90DF9008950F931F939A
:10387000CF93DF931F92CDB7DEB782E0898342E416
:1038800050E06FEB71E080E80E940F1C0E94F81579
:10389000DC0112960D911C9113970115110569F029
:1038A000D801ED91FC910280F381E02DBE016F5FA4
:1038B0007F4FC801099597FF07C089810F90DF915D
:1038C000CF911F910F910895F80100851185E5CFE3
:1038D0001F920F920FB60F921124CF92DF92EF92A8
:1038E000FF920F931F932F933F934F935F936F9389
:1038F0007F938F939F93AF93BF93EF93FF93CF9358
:10390000DF93CDB7DEB76C97DEBFCDBF1092E90075
:103910008091E80083FFEDC168E0CE0145960E94EA
:10392000021582EF8093E8008D8987FF05C0909192
:10393000E80090FFFCCF03C09EEF9093E800982F23
:10394000907609F0C6C09E892F89188D91110CC000
:10395000803829F4809131048093F10002C01092E4
:10396000F1001092F10048C1422F50E0512B9130EC
:1039700051F4811141C14130510509F03DC180919F
:1039800031048D7F0BC0933061F4811135C141301A
:10399000510509F031C18091310482608093310476
:1039A0002BC1953041F48091E80080FFFCCF206866
:1039B0002093E30021C1963009F05FC0EB8CFC8CB2
:1039C0001092E9001092EC051092EB05123091F57F
:1039D0001092EA051092E9050E94361C99E0BE019A
:1039E0006F5F7F4FDB01E92F1D92EA95E9F799831D
:1039F0001A8391E09E8390EA98879AEF99872091A5
:103A0000EB053091EC05275F3F4F3C832B838D8383
:103A10001092E9001092EC051092EB05F092EA0585
:103A2000E092E90549E050E080E00E940F1C0E940E
:103A3000361CE2C0F092EA05E092E9050E94F81512
:103A4000DC011296ED90FC901397E114F10409F457
:103A5000C0C0D701ED91FC910480F581E02DBE013D
:103A60006B5E7F4FC7010995009719F00CF0C4C039
:103A7000C7C0F701E084F184E8CF973009F4C0C0F3
:103A8000983021F481E08093F100B6C0993009F0BC
:103A9000B3C0837009F0B4C0EBE1F1E081E021E054
:103AA00036E39081992361F08093E9002093EB0045
:103AB00091919093EC003093ED008F5F873089F700
:103AC0008EE78093EA001092EA008F898093490480
:103AD00093C08B8D9C8D1092E9001092EC05109292
:103AE000EB059093EA058093E905898D811156C015
:103AF0008E899D89913A59F4813209F081C047E05D
:103B000050E065E271E080E00E940F1C75C09132C8
:103B100009F076C0833289F4888D90E0982F882749
:103B20002F89822BA0E0B0E08093210190932201A5
:103B3000A0932301B09324015FC0803269F4809187
:103B4000E80082FFFCCF67E085E291E00E94021569
:103B50008BEF8093E80006C0823209F04DC08F8958
:103B600080932C0180912F04882319F0EEEFFAE066
:103B700002C0E0E0F8E08091250190912601A0913B
:103B80002701B0912801803B9440A105B10509F0BF
:103B90007BC080912C0180FF93C076C00E94F815F5
:103BA000DC0112960D911C9113970115110541F13D
:103BB000D801ED91FC910190F081E02DBE016B5E8A
:103BC0007F4FC8010995811117C0F8010085118543
:103BD000ECCF113009F44EC0133091F48F89882353
:103BE00009F445C0823081F440E86DE083E292E060
:103BF0000E94E419882321F08EEF8093E80079C0B9
:103C000081E28093EB0075C0813029F440E86BE0DD
:103C100087E192E0EDCF833099F70E94F815DC013F
:103C20001296ED90FC9013978E010F5F1F4F680165
:103C3000E114F10479F0D701ED91FC910680F78150
:103C4000E02DB801C7010995080F111DF701E084A7
:103C5000F184EECFD8011C92F60101900020E9F723
:103C60003197BF016C197D0940E0C601C1CF61E009
:103C700072E002C065E072E06115710509F2FB01B6
:103C8000449150E080E840CF0FB6F894A895809119
:103C90006000886180936000109260000FBEA8955C
:103CA000EE3F2AE0F20739F08091FE0A9091FF0A78
:103CB00091838083A1CF1092FF0A1092FE0A9CCFBD
:103CC000EE3F8AE0F80731F0808191819093FF0AFE
:103CD0008093FE0A87E797E7918380839BE088E1E2
:103CE0000FB6F894A895809360000FBE9093600083
:103CF00083CF6C960FB6F894DEBF0FBECDBFDF91B9
:103D0000CF91FF91EF91BF91AF919F918F917F9153
:103D10006F915F914F913F912F911F910F91FF9064
:103D2000EF90DF90CF900F900FBE0F901F901895DF
:103D300061E084E10E94A1168FEB94E00197F1F716
:103D400060E084E10E94A11687E49EE00197F1F70C
:103D500060E084E10C94A11661E084E10E94A11668
:103D600087E49EE00197F1F760E084E10E94A116EC
:103D70008FEB94E00197F1F760E084E10C94A116D9
:103D800060E084E10E94A11687EB91E00197F1F7D2
:103D9000089561E084E10E94A11687EB91E001970C
:103DA000F1F708957F928F929F92AF92BF92CF9238
:103DB000DF92EF92FF920F931F93CF93DF93EC016B
:103DC00081E090E09093F0058093EF057E01BE01C5
:103DD000685F7F4FFE012FEF3FEFE617F70799F07F
:103DE0008191382788E090E0A901440F551F37FFE3
:103DF00006C09A01A1E22A27A0E13A2701C09A0150
:103E0000019791F7EACF288739870E94C01E0E9448
:103E1000C91E0E94C01E0E94C91E0E94C01E0E9490
:103E2000C91E0E94C01E0E94C91E0E94C01E0E9480
:103E3000C91E0E94C01E0E94C91E0E94C01E0E9470
:103E4000C01E0E94C91E0E94C91E0E94C91E0E9457
:103E5000C91E0E94C91E0E94C91E0E94C91E0E943E
:103E6000C91E0E94C91E2A9607EB11E093E7A92EEE
:103E700093E0B92E88248394912CF70171907F01EF
:103E800088E0C82ED12C8091EF059091F00577FE47
:103E90000EC0892B31F060E084E10E94A116C501BB
:103EA00027C061E084E10E94A116C5010EC0892BE4
:103EB00099F060E084E10E94A116C8010197F1F732
:103EC00061E084E10E94A116C8010197F1F7909288
:103ED000F0058092EF0512C061E084E10E94A11616
:103EE000C8010197F1F760E084E10E94A116C801C2
:103EF0000197F1F71092F0051092EF05770CF1E0C1
:103F0000CF1AD10809F0BFCFEC16FD0609F0B5CFE6
:103F100061E084E10E94A1168FE295E00197F1F73C
:103F200060E084E1DF91CF911F910F91FF90EF90BE
:103F3000DF90CF90BF90AF909F908F907F900C9428
:103F4000A116AF92BF92CF92DF92EF92FF920F93A2
:103F50001F93CF93DF9300D000D0CDB7DEB78A0197
:103F600024E1A22EB12C21E0A21AB1086B017C0140
:103F70000A2C04C0F694E794D794C7940A94D2F715
:103F800069837A838B839C83C0FE07C00E94AC1E2A
:103F900069817A818B819C8106C00E94981E9C81D8
:103FA0008B817A816981A114B104E9F684E0E82E5D
:103FB000F12C81E0E81AF108C8010E2C02C0959599
:103FC00087950A94E2F780FF03C00E94AC1E02C0EE
:103FD0000E94981EE114F10461F70F900F900F906A
:103FE0000F90DF91CF911F910F91FF90EF90DF9095
:103FF000CF90BF90AF900C94981E0F931F93CF93C8
:10400000DF938C0185E30E94A10FC3E8DCE0CE01C1
:104010000197F1F7C8010E94D21E86E30E94A10F0A
:1040200061E470E080E090E00E94321785E30E9436
:10403000A10F2197F1F7C8010E94D21E86E30E94CA
:10404000A10F61E470E080E090E0DF91CF911F91DB
:104050000F910C943217CF92DF92EF92FF920E9451
:10406000473126E03EE546EC53E40E94E4320E94EC
:1040700056336B017C01B701882799278DE00E9498
:10408000870F99278F2D7E2D6D2D8EE00E94870F33
:104090006C2D8FE0FF90EF90DF90CF900C94870F06
:1040A00085E190E090937605809375050E94381025
:1040B0006FEF8FEF0E94D10F60E977E78EED99E106
:1040C0000E942B2064E087E00E94870F85E30E9416
:1040D000A10F6DE080E00C94870F85E190E0909354
:1040E0007605809375050E9438106FEF8FEF0E9460
:1040F000D10F6091060170910701809108019091A4
:1041000009010E942B2064E087E00E94870F85E36D
:104110000E94A10F6DE080E00C94870F85E190E094
:1041200090937605809375050E9438106091060182
:104130007091070180910801909109010E942B2044
:1041400064E087E00E94870F6DE080E00E94870FA7
:1041500067E080E10E94870F63E981E10E94870F99
:1041600084E30C94A10F4F925F926F927F928F9293
:104170009F92AF92BF92CF92DF92EF92FF920F93F6
:104180001F93CF93DF93CDB7DEB7E9970FB6F894BF
:10419000DEBF0FBECDBF85E190E0909376058093A2
:1041A00075050E94381086E30E94A10F60910201FC
:1041B0007091030180910401909105010E942B20D0
:1041C00085E30E94A10F61E084E10E94A11687EBC4
:1041D0009FEF9093F2058093F105EE24E394F12C88
:1041E0008091240490912504009709F4AFC1813097
:1041F000910541F0029709F08AC161E084E10E94D3
:10420000A11685C1C114D10449F080912A0490916E
:104210002B04A0912C04B0912D0408C08091260499
:1042200090912704A0912804B09129048093020161
:1042300090930301A0930401B093050181E0C82687
:1042400081E0C822DD2486E30E94A10F6091020173
:104250007091030180910401909105010E942B202F
:1042600084E30E94A10F62E070E080E090E00E9491
:10427000321760E0809175050E94A11684EF0E94BC
:10428000810F80E00E94810F082F61E08091750509
:104290000E94A11610E0013811052CF01A9517FFA5
:1042A00002C00F5F1F4F159507950B5411098091A0
:1042B000F1059091F205801791070CF0BFC086E3DD
:1042C0000E94A10F6091020170910301809104018D
:1042D000909105010E942B2085E30E94A10F61E0CF
:1042E00084E10E94A11665E070E080E090E00E9409
:1042F000321760E084E10E94A1160E941C184B0155
:104300005C010E941C184090440450904504609049
:10431000460470904704DC01CB0184199509A60975
:10432000B70986399105A105B10508F48AC06091E5
:1043300002017091030180910401909105011FA673
:104340001EA619AA18AA1BAA1AAA2AE0AE014F5F34
:104350005F4F0E94CB2FBE016F5F7F4FCE018E96C5
:104360000E94BB1A23E030E040E050E0BE01625DF5
:104370007F4FCE01C4960E94571B19A618A61BA6F4
:104380001AA61DA61CA64AE0BE016F5F7F4FC8019A
:104390000E94A92FBE016F5F7F4FCE0188960E94B9
:1043A000BB1A60EF73E0CE0182960E94421BBE01F1
:1043B000685D7F4FCE0182960E94991A6FEF73E07D
:1043C0000E94801ABE016C5C7F4F0E94991A68E0BF
:1043D00074E00E94801ABC01CE0101960E94281B45
:1043E000CE0182960E940B1BCE0188960E940B1B69
:1043F000CE01C4960E940B1BCE018E960E940B1B11
:10440000BE016F5F7F4F80E594E00E940F156AE167
:1044100072E080E594E00E941D150E941C184B017B
:104420005C01609344047093450480934604909328
:104430004704CE0101960E940B1B03C0FF2009F424
:1044400066C00E941C18DC01CB0188199909AA09D1
:10445000BB09893C9105A105B10508F06DC0EE20AE
:1044600009F453C060EF73E080E594E00E94F61514
:10447000A801110F660B770B2AE030E080E594E08D
:104480000E947B156FEF73E080E594E00E94F615C3
:1044900060910201709103018091040190910501E6
:1044A0001BA21AA21DA21CA21FA21EA22AE0AE01DC
:1044B0004F5F5F4F0E94CB2FBE016F5F7F4FCE01DA
:1044C00082960E94BB1A23E030E040E050E0BE013B
:1044D0006E5D7F4FCE0101960E94571BBE016F5F3C
:1044E0007F4F80E594E00E940F15CE0101960E9457
:1044F0000B1BCE0182960E940B1B68E074E080E5E6
:1045000094E00E94E215E12C1FC0FF24F39480E5A3
:1045100094E00E94A713181619060CF061CE1092B1
:104520002504109224040E948E2063E773E080E546
:1045300094E00E94E21554CE6CE074E080E594E0D3
:104540000E94E215EE24E394F12CE1CFE9960FB638
:10455000F894DEBF0FBECDBFDF91CF911F910F91B9
:10456000FF90EF90DF90CF90BF90AF909F908F9093
:104570007F906F905F904F900895DC01FB01129641
:104580008C91129790E02481358182179307D1F4A2
:1045900091818081813A31F481E0913091F09330C2
:1045A00089F411C0813271F49B3021F482811F960D
:1045B0008C9305C09A3031F4828150968C9381E0BF
:1045C0000895089580E00895DC01FB0188E480836C
:1045D00089E4818384E482831D969C911D979F705A
:1045E0009F5B93831D968D919C911E9724E09695D9
:1045F00087952A95E1F78F708F5B848385E0089516
:10460000FC0182818F5BFB01808381E00895089526
:1046100080E090E00895EF92FF920F931F93CF9365
:10462000DF93FB012081213851F52381223239F5B6
:10463000DC0112962C9130E04481558142175307DA
:10464000F1F4EC010B851C85E12CF12C0115110511
:1046500091F0F801448155816281738180E80E9464
:104660000F1C8F3FFFEF9F0769F0E80EF91ED8017E
:104670000D911C91EBCF81E08F87C70105C080E0D1
:1046800090E002C08FEF9FEFDF91CF911F910F91CC
:10469000FF90EF900895CF93DF93CDB7DEB7699782
:1046A0000FB6F894DEBF0FBECDBFFC01DB018C91CD
:1046B0008F5F8C93BE016F5F7F4F89E1DB011D929D
:1046C0008A95E9F729E0298384E08A8391E09D8334
:1046D00083E08E832A8721E22B879C879D879F8793
:1046E00022E2288B27E02B8B25E02C8B8E8B20E47D
:1046F00030E0388F2F8B998F82818B8395858685CB
:10470000998B8A8B838180688D8B49E150E080E0B2
:104710000E940F1C69960FB6F894DEBF0FBECDBF86
:10472000DF91CF9108952F923F924F925F926F92B7
:104730007F928F929F92AF92BF92CF92DF92EF9231
:10474000FF920F931F93CF93DF93CDB7DEB765979B
:104750000FB6F894DEBF0FBECDBF0E940D176B01E0
:104760007C0180911B0890911C082601481A590A67
:104770002DEC421620E1520608F4F6C08091950710
:1047800090919607A201481B590BCA0157FF03C01D
:10479000919581959109883C91050CF0E1C080913B
:1047A00093079091940701969093940780939307B1
:1047B000029709F0D5C094E6692E91E0792E01E0C8
:1047C00010E020909107309092073B862A8649E0BE
:1047D00050E0B301CE0101960E94A02F8C816B8125
:1047E000681708F4682F70E08091950790919607FC
:1047F0000E9485339B014091180150911901649FDB
:10480000C001659F900D749F900D112464E670E0C7
:104810000E9485338985811103C0A1E0B0E002C008
:10482000A2E0B0E08D81829FA001839F500D1124F2
:104830005D874C878E81829F1001839F300C1124ED
:104840003F862E868F81829FA001839F500D112469
:10485000598B488B8885829F1001839F300C1124CF
:104860003B8A2A8AFD01EE0FFF1FEB56F84F812C81
:10487000912C54014A855B85415051095D8B4C8BCD
:104880008C899D89A817B90708F040C0880C991C2D
:10489000AA1CBB1C80819181AC012C843D844219EF
:1048A000530957FF03C051954195510946175707C2
:1048B00070F4428153812E843F844219530957FF7B
:1048C00003C051954195510946175707E0F02888D4
:1048D00039888219930997FF03C0919581959109B1
:1048E0008617970780F5828193814A895B89841BAB
:1048F000950B97FF03C091958195910986179707AE
:1049000010F5689480F812963496BACF4A855B8584
:1049100048305105C0F08092660590926705A092DC
:104920006805B09269051C013694279430924F04B3
:1049300020924E043093900720938F0710934304E6
:104940000093420409C00F5F1F4F59E0650E711CB0
:104950000830110509F035CF109294071092930793
:10496000109292071092910780919107909192076F
:104970008334910540F010929207109291071092A3
:1049800094071092930780919107909192079C0150
:104990002F5F3F4F3093920720939107880F991F05
:1049A000FC01EB56F84F51824082C0921B08D09216
:1049B0001C08E0921D08F0921E0865960FB6F89448
:1049C000DEBF0FBECDBFDF91CF911F910F91FF9042
:1049D000EF90DF90CF90BF90AF909F908F907F909F
:1049E0006F905F904F903F902F900895CF92DF92FD
:1049F000EF92FF920F931F93CF93DF93CDB7DEB764
:104A0000CC54D1090FB6F894DEBF0FBECDBF8C01D8
:104A10006B016CE172E0CE01895B9F4F0E94421BEB
:104A2000F601E480F5806CE172E0CE018F5B9F4F70
:104A30000E94421BFCE1EF16F104B9F52BE1E22ED6
:104A4000F12CB701C6010E94211AFC016081CE0140
:104A500001960E94101BBE016F5F7F4FCE018F5BDE
:104A60009F4F0E94D21ACE0101960E940B1B61E259
:104A700074E0CE018F5B9F4F0E94331A6DE872E0A5
:104A8000811109C0CE018F5B9F4F0E94331A88238A
:104A900039F061E274E0CE01895B9F4F0E94AC1A4D
:104AA000F1E0EF1AF10868F676C0E0E2EE16F104E4
:104AB000B9F59FE1E92EF12CB701C6010E94211A38
:104AC000FC016081CE0101960E94101BBE016F5F48
:104AD0007F4FCE018F5B9F4F0E94D21ACE0101966D
:104AE0000E940B1B61E274E0CE018F5B9F4F0E941E
:104AF000331A6DE872E0811109C0CE018F5B9F4FC0
:104B00000E94331A882339F061E274E0CE01895B98
:104B10009F4F0E94AC1AF1E0EF1AF10868F63BC013
:104B2000E4E0EE16F10409F04CC083E0E82EF12C2D
:104B3000B701C6010E94211AFC016081CE010196D5
:104B40000E94101BBE016F5F7F4FCE018F5B9F4F96
:104B50000E94D21ACE0101960E940B1B61E274E002
:104B6000CE018F5B9F4F0E94331A6DE872E0811176
:104B700009C0CE018F5B9F4F0E94331A882339F002
:104B800061E274E0CE01895B9F4F0E94AC1AF1E0B4
:104B9000EF1AF10868F642E050E060E070E0299614
:104BA0008EAD9FAD29970E94672E20E1AE014F5F29
:104BB0005F4F0E94CB2FBE016F5F7F4FC8010E94E5
:104BC000421BCE018F5B9F4F0E940B1BCE01895B66
:104BD0009F4F0E940B1BC801C45BDF4F0FB6F894B8
:104BE000DEBF0FBECDBFDF91CF911F910F91FF9020
:104BF000EF90DF90CF9008958F929F92AF92BF92E7
:104C0000CF92DF92EF92FF920F931F93CF93DF9398
:104C1000CDB7DEB76E970FB6F894DEBF0FBECDBF2F
:104C20000E940D176B017C0180918B0790918C077E
:104C30009601281B390BC90130938A0720938907F5
:104C400020918707309188072C39310508F4FFC07F
:104C50002091F7053091F805A901405A5F404817A7
:104C6000590708F0F4C02056304F8217930708F018
:104C7000EEC020912706309128062D5A3D40273E50
:104C8000334008F0E4C06CE172E0CE0149960E9426
:104C9000421B6CE172E0CE0143960E94421B6CE124
:104CA00072E0CE010D960E94421B09E216E0F80167
:104CB00020813181828193812817390718F461E2BC
:104CC00074E005C08217930730F46DE872E0CE01FE
:104CD00043960E94AC1A0C5F1F4FF6E0093A1F077B
:104CE00031F709EA16E0F801208131818281938150
:104CF0002817390718F461E274E005C0821793079A
:104D000030F46DE872E0CE0149960E94AC1A0C5F57
:104D10001F4FF7E009311F0731F709E117E0F801EC
:104D200020813181828193812817390718F461E24B
:104D300074E005C08217930730F46DE872E0CE018D
:104D40000D960E94AC1A0C5F1F4FF7E009321F0747
:104D500031F7BE01635F7F4FCE0107960E94281B8B
:104D6000BE01695F7F4FCE0101960E94F624BE010D
:104D70006F5F7F4F84E995E00E94D21ACE010196C1
:104D80000E940B1BCE0107960E940B1BBE016D5E9D
:104D90007F4FCE0107960E94281BBE01695F7F4F9F
:104DA000CE0101960E94F624BE016F5F7F4F8AE913
:104DB00095E00E94D21ACE0101960E940B1BCE01F3
:104DC00007960E940B1BBE01675E7F4FCE010796C0
:104DD0000E94281BBE01695F7F4FCE0101960E9491
:104DE000F624BE016F5F7F4F80EA95E00E94D21AE1
:104DF000CE0101960E940B1BCE0107960E940B1B51
:104E0000812C912C540183948092620590926305C9
:104E1000A0926405B092650584E090E09093F4055B
:104E20008093F305CE010D960E940B1BCE01439695
:104E30000E940B1BCE0149960E940B1B80926205BB
:104E400090926305A0926405B092650503C0893C09
:104E5000924320F01092880710928707809187076D
:104E600090918807883C910540F010928807109235
:104E700087071092F6051092F505809187079091AB
:104E800088079C012F5F3F4F309388072093870747
:104E9000880F991FFC01E950FA4F80918907909182
:104EA0008A0791838083C0928B07D0928C07E0920F
:104EB0008D07F0928E076E960FB6F894DEBF0FBE88
:104EC000CDBFDF91CF911F910F91FF90EF90DF90B9
:104ED000CF90BF90AF909F908F9008950F931F93A6
:104EE000CF93DF931F92CDB7DEB78B0180914E0534
:104EF000811107C08DE395E00E94351981E0809310
:104F00004E0582E0898341E050E0BE016F5F7F4F34
:104F1000809140050E946C1797FD08C08091400564
:104F200048E050E0B80180640E946C170F90DF9158
:104F3000CF911F910F910895DC01683810F06858E7
:104F40002DC0E62FF0E067FF11C0E058F10981E0C5
:104F500090E001C0880FEA95EAF714969C911497A7
:104F6000892B14968C93149760E018C0EF5CFD4F6A
:104F70006491611109C081E090E013969C938E9337
:104F8000129780E090E0089567FF08C014968C9116
:104F90001497826014968C9314976F7716968C9161
:104FA0001697861751F117968C911797861729F146
:104FB00018968C911897861701F119968C9119976C
:104FC0008617D9F01A968C911A978617B1F01B960E
:104FD0008C911B97861789F0FD01369680E090E052
:104FE0002191211105C0FD01E80FF91F668305C05D
:104FF000019686309105A1F7BECFCD01BD016C5F52
:105000007F4F0E946E2781E090E00895EF92FF921B
:105010000F931F93CF938C01C62F0E949C277C0176
:10502000C83818F068E76C0F1FC0EC2FF0E0C7FF1E
:105030000FC0E058F10921E030E001C0220FEA95ED
:10504000EAF72095F80184812823248360E00CC0CE
:10505000EF5CFD4F64916623D1F067FF05C0F80156
:1050600084818D7F84836F77F801369686E066238E
:1050700021F09081961301C01082815031968111E8
:10508000F6CFB8016C5F7F4FC8010E946E27C70141
:105090009927CF911F910F91FF90EF900895CF9393
:1050A000DF93CDB7DEB7E0970FB6F894DEBF0FBE43
:1050B000CDBF789484B5826084BD84B5816084BDA1
:1050C00085B5826085BD85B5816085BD80916E00A6
:1050D000816080936E0010928100809181008260D7
:1050E0008093810080918100816080938100809114
:1050F0008000816080938000809191008260809325
:105100009100809191008160809391008091900046
:105110008160809390008091C10084608093C10081
:105120008091C10082608093C1008091C100816044
:105130008093C1008091C30081608093C3008091FF
:10514000C00082608093C0008091C2008160809323
:10515000C20080917A00846080937A0080917A0006
:10516000826080937A0080917A00816080937A00D7
:1051700080917A00806880937A001092490410929E
:105180003104109230048091D70081608093D70061
:1051900080EA8093D80089B5806189BD89B5826035
:1051A00089BD09B400FEFDCF61E070E080E090E0D1
:1051B0000E9432178091D8008F7C80618093D80044
:1051C0008091E000807F8093E0008091E1008E7EFE
:1051D0008093E1008DE08093E200559A209A5D98DB
:1051E0002898EEEFFFE7859194918B3F9C4D19F441
:1051F00081E080932F04E0916004F091610482E0EB
:105200008083E0915C04F0915D041082E0915E0483
:10521000F0915F048FEC808310926804E091640445
:10522000F091650486E08083E0916204F09163046C
:10523000808180618083E0916204F09163048081C9
:1052400088608083E0916204F091630480818068CB
:105250008083E0916204F091630480818F7D80837C
:1052600060ED77E080E090E00E94321761E082E13B
:105270000E94D11661E083E10E94D11661E085E1D0
:105280000E94D11661E084E10E94D11660E082E0C4
:105290000E94D11661E085E10E94A11660E084E1E0
:1052A0000E94A11661E085E10E94A11660E084E100
:1052B0000E94A11661E085E10E94D11661E084E1BF
:1052C0000E94D11660E082E00E94D11661E088E081
:1052D0000E94D11661E088E00E94A11660E085E09E
:1052E0000E94D11661E086E00E94D11661E089E05B
:1052F0000E94D11660E086E00E94A11660E089E07D
:105300000E94A11664E670E080E090E00E943217EF
:1053100060E173E080E594E00E94E2150E948E2037
:1053200064E070E080E090E00E94321761E383E285
:1053300093E00E942B0E6AE086E293E00E942B0E1F
:1053400043E050E06DE089E293E00E94D61262E211
:105350008EE293E00E942B0E42E050E060E189E390
:1053600093E00E94D61241E050E068E083E493E0CD
:105370000E94D61281E090E09093800580937F0593
:105380000E941411ABEF2A2EA4E03A2E0E941C18A2
:105390004B015C010E941C18DC01CB0188199909A2
:1053A000AA09BB0985369105A105B10508F06FC0B2
:1053B00009EE13E00E944B11892B19F401501109D9
:1053C000C9F7C1010197F1F70E944B11019711F73D
:1053D00018E0F9EEAF2EF3E0BF2E0E944B110197BB
:1053E00029F431E0A31AB108C1F751C0C1010197F6
:1053F000F1F70E944B11892B09F449C0115049F76C
:1054000009EE13E00E944B11019709F485C2512C5B
:105410001D821C821B821A82198200E010E030E09B
:10542000AE014F5F5F4F5A01412C60E0C10101970F
:10543000F1F738AB6DA70E944B1121E038A96DA59B
:10544000892B09F420E0822E912C643009F06BC284
:10545000420ED5018C91280FF50121935F0149EE91
:10546000642E43E0742E38AB6DA70E944B1138A90F
:105470006DA58815990509F46BC251106EC26F5F56
:105480006530A1F63A3009F46DC240FE69C28091E0
:10549000320490913304009709F49EC08130910545
:1054A000D1F0029709F085C08091380490913904B9
:1054B000A0913A04B0913B0489A79AA7ABA7BCA7D7
:1054C0004090340450903504609036047090370456
:1054D0000FE010E00FC040913E0450913F046091F6
:1054E00040047091410480913C0490913D040E94DD
:1054F000CE115FC080903E0490903F04A090400485
:10550000B0904104B501A40180913C0490913D0408
:105510000E94CE110150110969F7A50194012419C7
:10552000350946095709A4E6B0E00E94933229A53F
:105530003AA54BA55CA524193509460957090E94CF
:10554000743263E673E080E594E02DA738AB4EA794
:105550005FA70E94F6152DA538A9B901653671051A
:1055600014F064E670E04AE050E080E594E00E94C8
:10557000C91580913E0490913F04A0914004B091E0
:10558000410429A53AA54BA55CA582179307A4075A
:10559000B50721F410923304109232040196A11D34
:1055A000B11D80933E0490933F04A0934004B093B8
:1055B000410480E594E00E94A713181619060CF028
:1055C00066CF109233041092320463E773E080E5F3
:1055D00094E00E94E2155BCF80E594E00E94A7135F
:1055E00018161906B4F480E594E00E9485138983A7
:1055F0001A8241E050E0BE016F5F7F4F8EE895E078
:105600000E94521A64E070E080E090E00E9432173D
:10561000E3CF8091920590919305892B11F00E9420
:10562000850180910A0190910B018130910509F06B
:10563000BCC08091660590916705A0916805B09106
:105640006905892B8A2B8B2B09F463C10E941C18D6
:105650000091440410914504209146043091470480
:10566000DC01CB01801B910BA20BB30B8E3591405B
:10567000A105B10548F410926605109267051092D5
:1056800068051092690545C168E773E080E594E01C
:105690000E94F61560910601709107018091080142
:1056A000909109011CA21BA21EA21DA218A61FA256
:1056B0002AE0AE014F5F5F4F0E94B42FBE016F5FC3
:1056C0007F4FCE0183960E94BB1A23E030E040E07A
:1056D00050E0BE016D5D7F4FCE0101960E94571BC9
:1056E000BE016F5F7F4F80E594E00E940F15CE01F1
:1056F00001960E940B1BCE0183960E940B1B6BE848
:1057000073E080E594E00E94F615409142045091C8
:10571000430460E070E02AE080E594E00E943215E6
:105720006CE973E080E594E00E94F615409166050F
:105730005091670560916805709169054F70552714
:105740006627772720E180E594E00E9432156CE51A
:1057500073E080E594E00E94F615809166059091D3
:105760006705A0916805B0916905BC01CD0124E0F1
:1057700096958795779567952A95D1F740E150E002
:105780000E945E0F109266051092670510926805E0
:10579000109269050E941C1860934404709345049C
:1057A0008093460490934704B4C0029709F0B1C0B7
:1057B0008091620590916305A0916405B0916505A3
:1057C000892B8A2B8B2B09F4A4C0E99881E994E1F9
:1057D00090930F0180930E016AE975E0CE01019666
:1057E0000E94281B40E150E060E070E089819A81CE
:1057F0000E94672ECE0101960E940B1B62EB73E0A4
:1058000080E594E00E94F61565E873E080E594E099
:105810000E94F615609106017091070180910801C0
:10582000909109011CA21BA21EA21DA218A61FA2D4
:105830002AE0AE014F5F5F4F0E94B42FBE016F5F41
:105840007F4FCE0183960E94BB1A23E030E040E0F8
:1058500050E0BE016D5D7F4FCE0101960E94571B47
:10586000BE016F5F7F4F80E594E00E940F15CE016F
:1058700001960E940B1BCE0183960E940B1B60ECCD
:1058800073E080E594E00E94F6156DE573E080E535
:1058900094E00E94F6156AE975E0CE0101960E9437
:1058A000281BBE016F5F7F4F80E594E00E940F15BB
:1058B000CE0101960E940B1B61EE73E080E594E03F
:1058C0000E94F61560EA75E0CE0101960E94281B41
:1058D000BE016F5F7F4F80E594E00E940F15CE01FF
:1058E00001960E940B1B6CE172E080E594E00E943F
:1058F000E2151092620510926305109264051092F1
:10590000650581E090E090936B0580936A050E94A5
:10591000430F0E9447143ACD0150110909F072CD8E
:105920005524539475CD3A3009F492CD323048F075
:10593000CC0CDD1CEE1CFF1CC20ED11CE11CF11CAA
:1059400087CDA801440F551F8A01080D191D80CD70
:10595000F1E06F1A710809F086CD5524539492CD69
:10596000511095CD3F5F3B3009F05ACD51108FCD8E
:10597000898180FD8CCD8A8180FD89CD8B8180FDE0
:1059800086CD8C8180FD83CD11270E941C188090CC
:10599000440490904504A0904604B0904704DC0174
:1059A000CB0188199909AA09BB098E359140A10537
:1059B000B10508F46CCDC114D104E104F10409F47B
:1059C00066CD6DE473E080E594E00E94F615A801D1
:1059D000110F660B770B2AE030E080E594E00E941F
:1059E0007B156CE573E080E594E00E94F6154AE0D3
:1059F00050E0C701B6010E945E0F0E941C18609320
:105A00004404709345048093460490934704C12C4A
:105A1000D12C76013CCD86EB95E00E940B1B8EE8E5
:105A200095E00E940B1B84E995E00E940B1B8AE91C
:105A300095E00E940B1B80EA95E00C940B1B0F93E2
:105A40001F93CF93DF93109253041092520488EE69
:105A500093E0A0E0B0E08093540490935504A093A9
:105A60005604B093570427E431E030935104209357
:105A700050042DEC30E030935D0420935C042CEC5A
:105A800030E030935F0420935E0428EC30E03093E4
:105A900061042093600429EC30E030936304209388
:105AA00062042AEC30E030936504209364042EEC09
:105AB00030E03093670420936604109269041092DA
:105AC0006A0410926B0410926C041092F00410920D
:105AD000EF048093F1049093F204A093F304B09345
